:020000040800F2
:1000000000800120DD020008E5020008E702000888
:10001000E9020008EB020008ED0200080000000001
:10002000000000000000000000000000EF020008D7
:10003000F102000800000000F3020008F5020008C9
:10004000F7020008F7020008F7020008F7020008AC
:10005000F7020008F7020008F7020008F70200089C
:10006000F7020008F7020008F7020008F70200088C
:10007000F7020008F7020008F7020008F70200087C
:10008000F7020008F7020008F702000845310008EF
:100090002D310008F702000839310008F702000886
:1000A000F7020008F7020008F7020008F70200084C
:1000B000F7020008F7020008F7020008F70200083C
:1000C000F7020008F7020008F7020008F70200082C
:1000D000F7020008F7020008F7020008F70200081C
:1000E000F7020008F7020008F7020008F70200080C
:1000F000F7020008F7020008F7020008F7020008FC
:10010000F7020008F7020008F7020008F7020008EB
:10011000F7020008F7020008F7020008F7020008DB
:10012000F7020008F7020008F7020008F7020008CB
:10013000F7020008F7020008F7020008F7020008BB
:10014000F7020008F7020008F7020008F7020008AB
:10015000F7020008F7020008F7020008F70200089B
:10016000F7020008F7020008F7020008F70200088B
:10017000F7020008F7020008F7020008000000007C
:10018000F7020008F702000800F002F800F098F803
:100190000AA090E8000C82448344AAF10107DA45E2
:1001A00001D100F08DF8AFF2090EBAE80F0013F09C
:1001B000010F18BFFB1A43F00103184788DE000047
:1001C000A8DE0000103A24BF78C878C1FAD85207D8
:1001D00024BF30C830C144BF04680C6070470000C1
:1001E0000023002400250026103A28BF78C1FBD840
:1001F000520728BF30C148BF0B6070476E2900F01E
:10020000F386702900F0558266290DF0308065294B
:100210000DF02D8067290DF02A8061290DF02980CD
:1002200003681B0A28BF41F08001692900F0C681DC
:10023000642900F0C381752900F0C0816F2901F0A5
:100240000182782900F02182E92901F09B81E429CB
:1002500001F09881F52901F09581EF2901F0FE81E7
:10026000F82900F020820368DB0928BF41F08001F3
:10027000632901F00A81732901F00F81E32902F05B
:100280003780F32902F03C80002070471FB50CF046
:10029000E9FF9DE8030000F0FBFD01F0F5FD04001F
:1002A000002000210CF0FCF8401C606000200021C0
:1002B0000CF0E0F8E06001F043FD00F0A9FD1FBD87
:1002C00009F0EEFF114603B409F0F9FF03BCFFF794
:1002D000DDFF02F020FF0AF0D5FA00000648804753
:1002E00006480047FEE7FEE7FEE7FEE7FEE7FEE71B
:1002F000FEE7FEE7FEE7FEE77965000889010008F2
:1003000000487047D020002070B5064600F0A4FDDC
:10031000056806F10B0020F00704B4429CBF0020E2
:1003200070BD2B466A68BAB11068A04210D304F1C0
:10033000080188423CBF5068586007D351681019C3
:1003400041601168091B016058601460101D70BD88
:1003500013465268002AE7D12146284600F084FD62
:100360000028DED170BD70B50446051F00F074FD95
:100370000068002C14BF446870BD002C18BFAC424C
:100380003CBF20466468F8D301680A18AA4218BF27
:10039000456003D12A680546114401602868411967
:1003A000A1421CBF6C6070BD61686960216808442F
:1003B000286070BD53EA020C00F069802DE9F04B13
:1003C0004FF00006002B1FBFB3FA83F503FA05F4C4
:1003D00024FA05F65E4012BF1643B2FA82F502FA1D
:1003E00005F4C5F120051EBF22FA05FC44EA0C0401
:1003F000203556EA044C4FEA144418BF641C4FF0F1
:1004000000084FF00009904271EB030C39D300292A
:1004100019BFB1FA81F701FA07F6B0FA80F700FACE
:1004200007F6C7F120071EBF20FA07FC46EA0C06B4
:100430002037B6FBF4FCA7EB0507103F07F01F0BB6
:10044000CBF120060CFA0BFB2CFA06F644BFB346A0
:100450000026202FA4BF5E464FF0000B5BEA060C7F
:1004600008BF4FF0010B19EB0B09ABFB027C48EB0B
:100470000608C01B06FB02CC0BFB03CC71EB0C0186
:10048000C1E70B46024641464846BDE8F08B13B52E
:100490004FF000004FF00001AFF30080BDE81C40BA
:1004A000704700007CB51D4616460C00009001D038
:1004B0002044401E074B7B442A4669460190304643
:1004C00000F0B9FF05461CB10020694600F0C6FFE8
:1004D00028467CBDAD0F00000FB4044910B503AA37
:1004E000029800F0DFFF10BC5DF814FB282100200B
:1004F0000FB41CB5084B06AA7B44694600900598CA
:1005000000F099FF04460020694600F0A7FF20464E
:100510001CBC5DF814FB0000610F000070B50446C0
:1005200085690068C10601D5302600E02026C00795
:1005300007D070BDD4E9012130469047206A401CA5
:1005400020626D1EF6D570BD70B5044685690078D1
:10055000C00707D170BDD4E9012120209047206A4F
:10056000401C20626D1EF6D570BD70B50C46054668
:10057000012A05D02878800600D5EA69002302E028
:10058000012305E05B1C934202D2E05C0028F9D114
:10059000A869E618C01AA861286A18442862284683
:1005A000FFF7BCFF04E0D5E9012114F8010B9047E7
:1005B000B442F8D32846FFF7C7FF70BD2DE9F041DC
:1005C0000646002410687529314616A510D000F0A3
:1005D000A0FC002802DA404213A507E031688A0730
:1005E00001D512A502E0490704D511A5012401E0B7
:1005F00000F098FC00210A2206F1240709E0B0FB74
:10060000F2FCB0FBF2F302FB1C00303078541846C9
:10061000491C0028F3D123462A463046BDE8F04164
:1006200000F089BC000000002D0000002B0000003D
:1006300020000000F0B40D460188090502D5214CC8
:100640007C4402E01F4C7C440E34002100F124065F
:1006500008E002F00F071209E75D42EA03721B0986
:100660007754491C52EA0307F3D10278002312079A
:1006700004D5702D06D009B1022311342246F0BCF6
:1006800000F059BC01231034F8E770B504460D465C
:100690002146106800F046FC024629462046BDE887
:1006A00070400023C6E7D21D22F00703D3E90023E0
:1006B000C0E70368126843F0200303600823C361A6
:1006C0000023B7E748D300002DE9F05F89460446D0
:1006D0004FF0000ADFF874B1FB44C0F820A02046B8
:1006E000E1688847002874D0252806D0D4E9012184
:1006F0009047206A401C2062F1E700265F462046B2
:10070000E16888472028054607DB312D05D2781996
:1007100010F8200C08B10643F1E7B00701D526F028
:100720000406C4F81CA00027C4F818A02A2D09D07C
:10073000284609F0BDFD38B304EB8708303DC8F802
:10074000185019E059F8041B204604EB8702916108
:10075000E1688847012F054618D1E069002820DAB2
:1007600026F020061DE0D8F8180000EB800005EB0D
:1007700040003038C8F818002046E1688847054630
:1007800009F096FD0028EED1012F0AD02E2D08D1B8
:100790002046E16888477F1C0546022F46F0200668
:1007A000C4DBA069002803DA404246F00106A061DC
:1007B000F00701D026F010066C2D0BD0682D09D063
:1007C0004C2D39D06A2D35D0742D35D07A2D33D0BB
:1007D00016E038E0E1682F4620468847B8420546D3
:1007E00009D16C2F26D04FF48060E1680643204683
:1007F0008847054604E06C2F1AD04FF480700643FA
:100800000DB3A5F14100192802D8203546F4006641
:100810004A462946204626604E46FFF7EFFC80B147
:1008200001280BD0F61D26F0070000F1080956E755
:100830004020E4E78020D8E70020D6E706F104094D
:100840004DE7284652E7206ABDE8F09FD8D2000065
:100850000FB400B58DB010A9099000910B904FF026
:10086000FF300A9000200C90064878440690064815
:1008700078446A4607900F9909A800F00DFF0DB063
:100880005DF814FB4B0E0000630E00002DE9FF5FC6
:100890001D464FF0FF3B91464FF000085F46D5E9FB
:1008A0000146A96901987F1C8847296A82468847C2
:1008B0000028F6D1BAF1FF3F0CD0002E24F4C0641A
:1008C00019DD600614D5BAF12B0F09D0BAF12D0F3E
:1008D0000ED103E0584604B0BDE8F09F44F48064B4
:1008E000A96901987F1C8847761E8246002E02DD8A
:1008F000BAF1300F03D0B9F1000F26D032E0A96968
:10090000761E01987F1C44F400748847002E8246AE
:1009100005DDBAF1780F06D0BAF1580F03D0B9F15E
:10092000000F10D01EE0B9F1000F02D0B9F1100F86
:1009300018D1A969761E01987F1C24F40074884799
:100940008246102002E0082000E00A20814609E0EB
:10095000A96908FB0908761E01987F1C44F40074FD
:1009600088478246002E05DD4946504600F080FE4D
:100970000028EDDAE96901988847A00502D46FF0F4
:100980000100A8E7E00725D1600613D5600502D570
:10099000C8F1000000E0404629680A1D2A60096885
:1009A000220501D5087015E0220701D5088011E065
:1009B00008600FE02868011D29600068210502D544
:1009C00080F8008006E0210702D5A0F8008001E051
:1009D000C0F8008038467EE770B50446C0688107DD
:1009E00013D0800601D5A56A04E0A16960680844B7
:1009F0002169451A204601F05FF900220646294682
:100A0000204601F085F8304670BD002070BD70B5FD
:100A100010B1BDE87040DFE70025074C6E1E07E00F
:100A20002046FFF7D9FF00B13546206D20F00104C4
:100A3000002CF5D1284670BDD420002010B5044606
:100A400003E009F047FF401C09D014F8010B0549E9
:100A50000028F6D1BDE810400A2009F03BBF4FF056
:100A6000FF3010BD282100202DE9F0410C4607463B
:100A70001646104600F078F82078611C61280AD0EC
:100A8000722802D077283CD102E00125002405E03D
:100A90000225042402E0082448F2020511F8010BA3
:100AA0002B2806D0622809D011F8010C74280AD02E
:100AB0000BE045F0030544F00204EFE745F00405C0
:100AC00044F00104EAE744F010043846214609F0F6
:100AD00061FC411C15D00021316171604FF400713F
:100AE000F560F1617061200704D5304602220021D3
:100AF00001F00EF8306D40F0010030653046BDE881
:100B0000F0810020FBE72DE9F0410D460646104C30
:100B1000206DC10704D0410804D020F00104F7E79C
:100B200022460EE05420FFF7EFFB07000ED0206DA9
:100B300047F00101084354212065384600F000F9D0
:100B40003A4629463046BDE8F0418DE70020D6E719
:100B5000D420002011B14FF4807201E04FF4806284
:100B60004FF4007301F050B82DE9F04704464FF000
:100B700000094FF0FF37C568D4E90486A80707D0FD
:100B8000204601F099F8304609F09EFB002802DA71
:100B90003846BDE8F087280502D54046FFF7E3FB5D
:100BA0004C21204600F0CCF8206D20F0010020659B
:100BB0004846EEE710B5431C02E010F8011B71B186
:100BC0008107FAD14FF0013202C88C1A8C4314EA23
:100BD000C211F9D0C01A0A0603D0C01E10BDC01A37
:100BE00010BD0A0401D0801E10BD0902FCD0401EB9
:100BF00010BD40EA010370B59B072ED14FF00136BE
:100C0000042A2AD308C810C99D1B9D43121F15EA48
:100C1000C61517D0D8B2E1B2401A50EA056110D11A
:100C200098B2A1B2401A50EA05410AD123F07F40A0
:100C300024F07F41401A50EA052102D1180EA0EBA2
:100C4000146070BDA342DBD018BA21BA884201D922
:100C5000012070BD4FF0FF3070BD0AB9002070BD9B
:100C600010F8013B11F8014B63B1A3420AD1521EA7
:100C700008D010F8013B11F8014B1BB1A34201D180
:100C8000521EEDD1181B70BD10B5203AC0F00B807C
:100C9000B1E81850203AA0E81850B1E81850A0E880
:100CA0001850BFF4F5AF5FEA027C24BFB1E81850DA
:100CB000A0E8185044BF18C918C0BDE810405FEA4A
:100CC000827C24BF51F8043B40F8043B08BF7047C6
:100CD000D20728BF31F8023B48BF11F8012B28BFCB
:100CE00020F8023B48BF00F8012B704702F0FF03D9
:100CF00043EA032242EA024200F002B84FF0000247
:100D00000429C0F0128010F0030C00F01B80CCF11D
:100D1000040CBCF1020F18BF00F8012BA8BF20F88B
:100D2000022BA1EB0C0100F00DB85FEAC17C24BFDF
:100D300000F8012B00F8012B48BF00F8012B704789
:100D40004FF0000200B5134694469646203922BF64
:100D5000A0E80C50A0E80C50B1F12001BFF4F7AFAF
:100D6000090728BFA0E80C5048BF0CC05DF804EB91
:100D7000890028BF40F8042B08BF704748BF20F8FF
:100D8000022B11F0804F18BF00F8012B70470000B4
:100D90004FF0013C50F8042B51F8043B9A4221D10A
:100DA000A2EB0C03934313EACC1317D150F8042B96
:100DB00051F8043B9A4215D1A2EB0C03934313EA7A
:100DC000CC130BD150F8042B51F8043B9A4209D1B3
:100DD000A2EB0C03934313EACC13DBD04FF00000DB
:100DE000704700BFD01A01BAB1FA81F101F01801C1
:100DF00022FA01F0CB40C1F12001DBB2C0B2C01A2F
:100E00002CFA01F3D11A914311EAC311E6D17047CC
:100E100070B5064C7C44064D7D4403E020682044B8
:100E20008047241DAC42F9D170BD000078D300008A
:100E300094D300002DE9F04117460E46054633B124
:100E400007FB0354E41B2046B047A542FAD1A5F1A5
:100E50000800BDE8F081000000487047D021002064
:100E6000704770477047704738B504460A460020FF
:100E7000694601F006FD002808BF38BD024600990A
:100E8000204601F005F8012038BD012001F0CEBC5C
:100E9000F8B501F0EBFC054600200C46102000BF21
:100EA0000646A819A0420DD932466946002001F035
:100EB000E8FC070008BF01F0B9FC0098A04218BF89
:100EC0000546C419FFF7C8FF05600746F01D20F06E
:100ED00007004619284600F00AF8B44208BFF8BDDA
:100EE000A21B31463868BDE8F84000F0D1BF0021B0
:100EF0000160C0E9011070471020704710B5FFF77E
:100F0000FFF9006810BD10B50446FFF7F9F9046059
:100F100010BD09684A0501D540B27047C905FCD526
:100F200000B2704709684A0501D5C0B27047C905CB
:100F3000FCD580B270472DE9F0470D4699469246A0
:100F4000044600F124080168880604D5E06921F010
:100F50001001216000E00120A84201DD471B00E0F4
:100F60000027A1697A1902EB0900081AA06120780C
:100F7000C00602D42046FFF7D1FA002608E0D4E9E3
:100F800001211AF806009047206A401C761C206256
:100F90004E45F4DB2078C0060AD52046FFF7BEFA9E
:100FA00006E0D4E9012130209047206A401C2062ED
:100FB000381EA7F10107F4DC07E0D4E9012118F895
:100FC00005009047206A401C2062281EA5F10105FB
:100FD000F3DC2046FFF7B8FA2078000602D502209D
:100FE000BDE8F0870120FBE711680268006A53053D
:100FF00001D508700AE0D30501D5088006E0130684
:1010000003D5C217C1E9000200E008600120704763
:1010100070472DE9FF4F0C461E464FF0FF378BB04F
:10102000D2E90001DDF860800A908A46C1F30A55D2
:1010300005B93D46002108464FF00000BAF1000F07
:1010400000F4400005DA00EB80004FF4400101EAB3
:1010500050004FEA9059B9F1010F00DDB9460A98E6
:1010600050EA4A000ED044F61050A5F2FF35454331
:101070002F14B8F1000F1ED07542291E1EDDC9F1D4
:1010800000021CE0B8F1010F4FF0000001D0302148
:1010900003E0F24305E02154401CB042FBDB304644
:1010A0000022002121540B99C1F80880C1E90020D9
:1010B0000FB0BDE8F08FBD1B6D1CDEE74A4600DABD
:1010C000694206A801F0DAFA06AB93E8070003AB21
:1010D00083E8070050460A9901F062FC8DE807009A
:1010E000A0F500501F3800900398002D09DD42F252
:1010F0001F014A46084403A90390684601F0C1FE57
:1011000008E0A0F500504A461F3803A9039068463E
:1011100001F0CBFE8DE807000004000C03D04FF077
:10112000FF30410800E01046B8F1000F03D0002264
:10113000009215461EE0751E05D400F0C3FE303245
:1011400062556D1EF9D5B3460122084302D0002234
:101150007F1C04E02078302801D100227F1E002A65
:10116000099786D01DE0112D07DA00F0ABFE303272
:1011700062556D1C50EA0102F5D1084302D0009877
:10118000C8B10EE00021681E05E0235C625C635478
:101190002254401E491C8142F7DBAB46A81B401E6F
:1011A0000990002004F80B000B98099AC0F80880F9
:1011B000C0E9002B7CE711264FF0000859E72DE924
:1011C000F04F88460446D21D22F0070191B0D1E9C4
:1011D0000001CDE90A0107F0EBFF02460B98C00FB2
:1011E00001D02D2007E02068810701D52B2002E0E7
:1011F000202101EAC000032A099001D0072A05DB5B
:1012000003464146204601F029F80BE1207880068C
:1012100001D5E06900E00620B8F1650F814606D0EF
:10122000B8F1660F18D0B8F1670F70D131E0002027
:10123000B9F1110F009001DB112301E009F1010365
:101240000AAA01A90CA8FFF7E4FEDDE90C7000264C
:1012500009F10105834647E001204B4600904FF01D
:1012600000470AAA01A90CA8FFF7D3FEDDE90DB0DB
:101270000C995D46002610B909F101000D18B9EB73
:10128000050003D4C0F1FF3609F10105A5EB090003
:101290002BE0B9F1010F01DA4FF001090020B9F19B
:1012A000110F0090484601DD112300E003460AAA11
:1012B00001A90CA8FFF7ADFEDDE90C704D46002634
:1012C0008346207800070AD4AB4500DA5D4601A8C2
:1012D000012D04DD411911F8011C302907D04F45BB
:1012E00002DA17F1040F04DA012082460FE06D1EC6
:1012F000EEE7002F02DCED1B3E4403E0781CA84221
:1013000000DD7D1CB81B00F1010A4FF0004720787A
:10131000000703D4AA4501DB4FF0FF3A0021B7F1E3
:10132000004F0DF143088DF8431024D002202B23E9
:10133000002F01DA7F422D230A21021EA0F10100B5
:1013400000DC5FB197FBF1FC97FBF1F201FB1C7C29
:1013500017460CF1300C08F801CDEEE7A8F10100BA
:1013600003702188090501D5452100E06521A0F120
:10137000010800F8011C09980FA9A1EB0807FF1D3F
:1013800000B10120411901EBEA70A1693844081A43
:10139000401EA0612078C00602D42046FFF7BEF8A8
:1013A000099828B1D4E901219047206A401C2062A5
:1013B0002078C00622D52046FFF7B0F81EE0002EA8
:1013C00004DBB34502DD01A8805D00E03020D4E9F4
:1013D00001219047206A401C2062761CAAF101007E
:1013E0005FEA000A0AD100F04FFDC0680168405C66
:1013F000D4E901219047206A401C2062281EA5F1F3
:101400000105DCDC07E0D4E9012118F8010B904765
:10141000206A401C2062381EA7F10107F3DC204639
:10142000FFF792F8032011B043E6000001694A1C5F
:1014300002610878704700B58FB0CDE90131002115
:10144000059105497944CDE9031011466846FFF737
:101450003BF90FB000BD0000E5FFFFFF0A6802F88E
:10146000010B0A607047D1E900239A4202D2531C53
:101470000B601070704710B5436913B1AFF3008073
:1014800001E0FFF772F8012010BD127800F124018D
:101490000A7000224A700122EDE711684FF0FF3216
:1014A000E9E70000074B70B50D467B44FFF7C3FF2B
:1014B0000446284600F020F910B14FF0FF3070BD0F
:1014C000204670BD279400002DE9FF5F15468A462F
:1014D0000446DFF8AC80F8440027D8E900103E4607
:1014E000CDE9001010E03AF816106A4602A801F0A3
:1014F00071F9411C07D02178890603D5E2693918B2
:1015000091420DD80744761C2078800602D5E06908
:10151000B84205DDAE42E6DB3AF816000028E2D11B
:10152000A069C01BA0612046FEF7F8FFD8E90010B3
:10153000CDE90010002017E03AF818106A4602A81A
:1015400001F048F9B0F1FF3F81460BD000250DF1C5
:10155000080B05E0D4E901211BF8050090476D1C3C
:101560004D45F7D308F10100B0428046E4DB206A24
:10157000384420622046FEF7E7FFBDE8FF9F0000E9
:1015800076C500002DE9F0418046D21D22F0070209
:101590000025D2E90002F52915A614D0011E72F12A
:1015A000000106DA0023D0EB030063EB020211A670
:1015B00008E0D8F800108B0701D50FA602E0490714
:1015C00001D50EA601251146002408F1240704E0E8
:1015D00000F078FC30323A55641C50EA0102F7D131
:1015E0002B46324621464046BDE8F041FFF7A3BCFA
:1015F000000000002D0000002B0000002000000073
:1016000030B4002100F1240408E002F00705D208FC
:10161000303542EA4372DB086554491C52EA03053F
:10162000F3D10468002310A2250708D504F0200494
:101630000C4304D0C46901230CA2641EC46130BCF5
:10164000FFF779BC10B5044621461068FFF76AFC25
:1016500002462046BDE810400023D1E7D21D22F00B
:101660000701D1E90023CBE70000000030000000B3
:101670003A2800D2303820F02002412A01D3A2F1CA
:101680003700884201D34FF0FF30704702681144A1
:101690001378016018467047D1600549794451615B
:1016A00004497944116200211161114600F02CBEF9
:1016B000EDFFFFFFA9080000426842B1016811F880
:1016C000013B23B1521EC0E90012184670470121A8
:1016D000C160881E704742685AB1C368016843B947
:1016E00083688B4205D0491E521CC0E900120020BD
:1016F00070474FF0FF307047007B00F0800070476C
:1017000070B50D4601461446D36850692A4608F064
:101710000DFF002807DA411C07D0E16820F00040E7
:1017200041F48041E160281A70BD204600F090FA33
:101730004FF0FF3070BDC1680022026021F480517B
:1017400041F0400111F4C06FC16001D08260704768
:1017500002694168891AC269891A816070472DE956
:10176000F0470446C06840F48000E060010312D5F1
:1017700020F40020E060810606D4E26A61688A42B3
:1017800000D80A46511A216040F40010E06094F835
:101790002500BDE8F08720F40010E060800602D547
:1017A000204600F0ACFAE06842F281014FF0FF39C8
:1017B0000140012903D0204600F04AFAB6E0216832
:1017C000002600290ADAC94340F480502160C4E9A8
:1017D00002606068411C61600078DAE744F2400111
:1017E00008420CD020F4A04040F040002660E060A9
:1017F00021696068401AE169401AA06096E0216999
:1018000091B9C00310D4E069FEF77EFD2061B0B14C
:10181000E06840F4006010F4407FE06002D140F4E2
:101820008070E06020696060E068D4F814A0C106B0
:101830001AD5C0030ED5204600F03EFA14E004F19C
:10184000240020610120E061E06820F4407040F451
:101850008060E6E721696068401AA169014450464A
:1018600008F0A0FE0028A6DBE068C0032AD5616866
:10187000E06A884200D808462169451AE069471B9A
:101880001BD02046D4F8188000F016FA08EB0501AA
:101890005046C4F8188008F085FE00288BDBE0680D
:1018A00040F40030E060000202D5A0692844A06145
:1018B000E1692069C91B45180DE0204600F0FCF9DC
:1018C000E769F5E725696168D4E90607491BE56220
:1018D00008446560A061E06820F0100010F4C06F5B
:1018E000E06002D0204600F059FFE06840F48050EC
:1018F000C4E90260000205D52069E06260606FF013
:10190000010046E7224639462846FFF7F9FE411C0A
:101910000CD02918E16258B1401E2060681C60603C
:10192000E06840F40030E060287832E7484630E76D
:1019300065602046FFF7FFFEF8E72DE9F047054612
:101940000C46C86820F4201040F48000C86080066F
:1019500002D5084600F0D3F9E06841F282014FF069
:10196000FF390140022903D0204600F071F9B5E0AB
:1019700000F42041B1F5004F0FD1C00306D56168D6
:10198000E06A884200D80846606006E02069E062AC
:101990006060606908F0BEFCA061A0680022EEB241
:1019A00000280DDAE1688B050AD4C043A06041F439
:1019B00090302260E0606068411C61600670A5E0C4
:1019C000E0689046226040F40050E060206968BB07
:1019D000606908F0BBFC012704F12405A0B1A089CF
:1019E00010F4407F08D0E069FEF78EFC206118B14A
:1019F000E06840F4006016E0E7612561E06820F4EB
:101A0000407040F480600EE0E069FEF77DFC002845
:101A10002061F1D0E06840F4006010F4407FE060A5
:101A200002D140F48070E06020696060E068256960
:101A30006FF0010AC1051FD56168E06A884200D8CD
:101A40000846411B04D02246284600F00BF9F0BBA3
:101A5000E068010203D5E562C4E9015854E0691C5D
:101A6000E1626160E16940F48030491EC4E902101E
:101A700030462E70BDE8F087010202D500F48032B6
:101A80000AE06068411C61600670E0680A2E40F45C
:101A90008030E06006D00022E16A6068814203D9AC
:101AA0000B4602E00122F7E70346A7895B1B7F058F
:101AB00003D4E7699F4200DDE2B1814200D80146CC
:101AC000E5620F1AC4E90158002B09DD00E005E0CA
:101AD00022461946284600F0C5F808B14846C9E72D
:101AE00047B1A069E5626560C01BA061E06840F095
:101AF0001000E060E068000208D56168A069E56256
:101B0000491B08446560A0615046B3E73046B1E721
:101B10002DE9F041044616460D464769007B8007D3
:101B20002ED0384608F012FC50BB3EB3012E02D036
:101B3000022E25D104E0204600F00EFE05441DE0F3
:101B4000384608F0E7FBE168002841F01001E16049
:101B500005DA204600F07CF80120BDE8F081C903D9
:101B60000BD56268E16A914200D81146A26911441E
:101B70002269891A814200DD08460544002D01DAF8
:101B80000220EAE7E16A6068E268814206D29103D6
:101B9000E06203D522F4003141F01002A66900276B
:101BA000AE4213DCE16A814201D90B4600E00346F4
:101BB00003EB060C2369ACEB030CAC4506DD81425C
:101BC00001D98C4600E084469C4505D1A76027607A
:101BD00042F02000A5620DE0AD1BE669AE1B81421C
:101BE000A66000D90846C01A281A206058196060FB
:101BF00022F0200003490840E060002084F848708B
:101C0000ABE70000BFCFD7FF70B5C468A50713D0FE
:101C1000650211D4B2F5807F09D0B2F5007F06D0FD
:101C2000B2F5806F08D1012300F1240106E05D1EAA
:101C30006FF07F46B54201D3012070BD0161C361E1
:101C4000416024F470611143C160002070BD000048
:101C5000C16821F4001141F08001C1600021816060
:101C6000016070472DE9F047814614460E464FF05B
:101C7000FF383248D5685769054209D03846A1690E
:101C800008F090FC002811DB2C48C0430540E560BB
:101C90002B4632464946384608F0A2FCA16920F09E
:101CA0000042B21A11440028A16103D02046FFF778
:101CB000CFFF4046BDE8F08770B504460569C06AAD
:101CC0006168884200D80846E16821F42011E1608B
:101CD000C90312D5A84208D02246411B2846FFF767
:101CE000C1FF10B14FF0FF3070BD0020E562C4E9C4
:101CF0000150E06820F48030E060002070BD10B535
:101D00000446C06820F02000E060A16AA069884213
:101D10000DD02046FFF7D0FFE06820F4405040F09F
:101D20001000E060A06AA0612069E062606044F297
:101D30004001E0688843E06010BD00001000020030
:101D400010B542485421FEF7FBFF41485421FEF7ED
:101D5000F7FF40485421FEF7F3FF3F493B483C4A18
:101D60003F4B08603D490A603A491960531C0365BE
:101D7000481C1065012008653B48344A39A1784465
:101D8000FEF772FE20B9384878440A3800F047FD63
:101D900037482F4A35A17844FEF766FE20B934480B
:101DA00078440A3800F03BFD32482A4A2FA1784493
:101DB000FEF75AFE20B92F4878440A3800F02FFD6C
:101DC00040232248DC0000212246FFF71DFF20B1FE
:101DD00025487844543800F022FD1D48224640230F
:101DE0000021FFF711FF20B121487844543800F05A
:101DF00016FD1848224610230021FFF705FF002892
:101E000006D01C487844BDE81040563800F007BDA5
:101E100010BD104870B5006D20F001040B48FEF7AE
:101E2000A3FE0B48FEF7A0FE0A48FEF79DFE09E060
:101E3000206D20F001052046FEF796FE2046FEF7B5
:101E400092FA2C46002CF3D170BD0000D420002063
:101E5000282100207C210020F4000020F800002030
:101E6000FC0000207200000062B800007700000053
:101E700051B8000041B8000010B500F0DFFCBDE82B
:101E8000104000F0C7BC000000487047D42100207B
:101E9000034640688C46002818BF88423CBF034672
:101EA0004068F8D318681844884207D00CF1030042
:101EB00020F00700001D411A521A0146081D0A6051
:101EC000FEF751BA30B5B0F10A024FEA900E71F147
:101ED00000034EEA817EB0EB0E0061EB91014FEA08
:101EE000101E4EEA017E10EB0E0041EB11114FEA7D
:101EF000102E4EEA016E10EB0E0041EB11214FEA5D
:101F0000104E4EEA014E10EB0E0041EB114140180D
:101F100041F100014FEAD00040EA41704FEAD1019F
:101F200010EB80054FEA810444EA907444EB01040D
:101F30006D1944EB0404521BA3414FF0000348BF4A
:101F40000A3200D530BD401C41F1000130BD10B552
:101F5000044600F0B9FC0068005D00F0010010BD0F
:101F60002DE9F04F04460D46D21D22F0070089B03E
:101F7000D0E9009248461746394607F019F902465B
:101F8000F80F01D02D2307E02068810701D52B230E
:101F900002E0202101EAC0038DF820300BB10120BE
:101FA00000E00020032A824601D0072A04DB2946EC
:101FB000204600F053F93DE12078800601D40D253C
:101FC00000E0E569C7F30A560D2D49DA00214FEA12
:101FD000175B08464FF00000002F00F4400007DABE
:101FE00000EB80004FF4400100EBD07001EA60008C
:101FF0008115012901DD4FF0FF3100224FEA850CE8
:10200000BCF1180F06D31346ACF118004FF0805204
:10201000C24003E04FF4801323FA0CF30CF10C0CD4
:10202000BCF1200F04D3ACF1200C09FA0CF001E054
:1020300007FA0CF000294FF0004801DD18B90FE055
:102040000ED140450CD319EB02095F4121B940453F
:1020500002D19F4329EA0209BBEB175F00D0761C2F
:102060002088000502D57B48784402E0794878440E
:10207000193808AA302302F80A30037C0AF101015A
:10208000002E0AF1020A53546A4602DC4FF0300176
:1020900001E04FF031014FF001088DF8001002D03F
:1020A000A6F2FF3603E059EA470100D06A4E002D40
:1020B00002DC2178090704D54FF002082E218DF8A3
:1020C0000110C44600210BE0C7F303433F01C35C8A
:1020D000491C6D1E02F80830052908F1010801DAD3
:1020E000002DF1DC00210CE000EB1973491C1B787A
:1020F0006D1E082902F808304FEA091908F1010895
:1021000001DA002DF0DC2178890602D514E0A8F16F
:102110000108E04505DD02EB080111F8011C30293A
:10212000F5D0B8F1000F07DD02EB080111F8011C32
:102130002E2901D1A8F10108002D05DD3E2102F86C
:1021400008106D1E08F10108407C002E02F80800FE
:1021500008F1010804DA2D20764202F8080002E0B6
:102160002B2002F808000A214FF47A70864208F109
:1021700001080BDB96FBF0F3303302F8083096FBD6
:10218000F0F308F1010800FB136601E0642E0CDB9C
:10219000642096FBF0F3303302F8083096FBF0F33E
:1021A00008F1010800FB136601E00A2E06DB96FB2E
:1021B000F1F0303002F8080008F1010896FBF1F068
:1021C00001FB1060303002F80800A16908F1010835
:1021D00008EB050202EB0A00081AA0612078C0068D
:1021E00002D42046FEF79AF9216A08AE01EB0A00F4
:1021F000206204E0D4E9012116F8010B9047BAF1FE
:10220000010AF7D22078C00602D52046FEF786F9EB
:102210006E4609E016F8010B3E280FD0D4E90121E3
:102220009047206A401C2062B8F10108F2D2204693
:10223000FEF78AF909B00320BDE8F08F206A284430
:10224000206203E0D4E90121302090476D1EEBD3DA
:10225000F8E7000007BA000002FCFFFF2DE9F0419B
:102260001F46044603260168072A01F4006004DBC8
:1022700008B116A505E016A503E008B115A500E014
:1022800015A521F010002060A069C01EA0610FB14B
:10229000401EA0612046FEF741F94FB1D4E901216B
:1022A00038469047206A401C2062C01C206206E02D
:1022B000206AFAE7D4E9012115F8010B9047761E50
:1022C000F8D22046FEF740F9BDE8F0814E414E00BD
:1022D0006E616E00494E4600696E660010B5436936
:1022E00013B1AFF3008001E0FFF7EEF8012010BD5D
:1022F000128800F1240182840022C2840122EDE7C9
:1023000011684FF0FF32E9E72DE9F34F4FF0000A73
:102310000C4656468DB001200C9001F10C000B903C
:1023200062690B980121904705002DD0252D2CD0F6
:10233000216A8847C0B162690B9801219047216AE0
:1023400088470028F7D16269411E0B98904700E04A
:10235000761CA1690D988847216A88470028F7D123
:10236000E1690D988847DBE7A1690D988847A84285
:10237000074601D1761CD3E7E1690D9888477F1C99
:1023800002D1BAF1000F6FD06BE162690B980027A0
:102390003D46394690472A2804D162690B980121AD
:1023A00090470125DFF8D08262690B9801219047A0
:1023B000A0F130010A290AD24745E5DC07EB870185
:1023C00000EB4107303FDFD445F01005ECE7E906AC
:1023D00001D46FF000476C280AD04C2814D068282C
:1023E00015D06A280DD074281CD07A281AD01DE088
:1023F00062690B98012190476C2802D045F00405D2
:1024000014E045F002050DE045F020050AE06269A0
:102410000B9801219047682802D045F0080505E097
:1024200045F4006562690B9801219047C4E90157A2
:1024300065283DD019DC58287AD00CDC452837D0E7
:1024400004DC252826D041289ED131E046282FD013
:10245000472899D12CE05B2877D0612828D06328C1
:102460007CD0642823D15AE0F6E06F2848D008DCFD
:1024700066281DD067281BD0692821D06E2816D168
:1024800027E0702845D0732868D0752847D0782871
:102490000DD14DE0A1690D988847252805463FF4E8
:1024A00069AFE1690D9888476D1C3FF46AAFD8E0C9
:1024B0000D9923466A466FF00100AFF30080C5E036
:1024C00045F0400023464FF000026060A80736D474
:1024D0003EE0E8077FF447AF2068011D21600068F7
:1024E000290501D506701BE7290701D5068017E7E6
:1024F000A90703D5F117C0E9006111E706600FE7EE
:1025000045F0400023464FF008026060A80716D44B
:102510001EE040F60E0125EA0100606016E045F07D
:10252000400023464FF00A026060A80707D40FE07E
:1025300045F040006060A80708D5234610220D9999
:102540006FF00100AFF3008080E007E01022234627
:102550000D996FF00100FEF799F977E04FF000094F
:1025600063284F46C8464B46CB4602D05B2806D070
:1025700038E0E80601D40120A060012732E062695A
:10258000D4F80CB00B98012190475E2807D14FF08A
:10259000010949466269D4F80CB00B98904721694B
:1025A00039B900210A4603AB43F82120491C082908
:1025B000FADBD8B3216949B308F1010862690B98C5
:1025C000012190475D28F4D1B9F1000F09D0002016
:1025D00003A951F82020D24341F82020401C0828AC
:1025E000F7DB03AB2069002820794FEA40701ED04A
:1025F0005B462246CDF80080CDE901970D99002871
:102600006FF0010020DAAFF300801FE0C11703AACA
:1026100000EBD1614B1121F01F0102EB8302411A43
:1026200013680120884003431360C7E719E00D9940
:10263000224600286FF00100009702DAAFF3008015
:1026400004E0AFF3008001E0AFF3008000280ADA75
:10265000401C06D10C9820B14FF0FF300FB0BDE800
:10266000F08F5046FAE7E90701D10AF1010A064462
:1026700000200C9054E60000CCCCCC0C2DE9F047A7
:10268000814616468AB0334878440DC88DE80D005F
:1026900030487844801C03AC0DC884E80D0041F636
:1026A0009B300844372190FBF1F290FBF1F5A5F146
:1026B000800501FB12041B3C02D56442012000E0AE
:1026C0000020DFF890A080460027FA44AAF1BE0A55
:1026D0000DE0E00709D03246684607EB47010AEBF8
:1026E000810100F0E2FB8DE8070064107F1C002CE4
:1026F000EFD1184F7F44AC3F18E0E80714D007EB48
:1027000004100DF1180A90E80E008AE80E00C06867
:10271000F04201D198190890324606A903A800F0AA
:10272000C4FB03AB83E807006D10641C002DE4D1EB
:1027300032466946B8F1000F03A802D000F0A1FBB1
:1027400001E000F0B2FBC9E90001C9F808200AB0B5
:10275000BDE8F08778B4000010B50146C268900764
:1027600003D0900607D5886A0AE0FDF7C9FD01216C
:102770000160881E10BD8B69486818440B69C01A37
:1027800091F848301BB191F84910401A10BD11035F
:10279000FCD50028FADD401E10BD000070B50546CE
:1027A00040F202260A4C0FE094F85000C00708D00F
:1027B000AC4206D0E06836EA000002D12046FEF7BF
:1027C0000BF9206D20F00104002CEDD170BD00004C
:1027D000D420002070B516460C46054600F074F86B
:1027E000036893F80101012806D0FF2C0FD8185D6B
:1027F00068B101202C7070BDD3F807013246214624
:1028000003F2071303442846BDE8704018474FF011
:10281000FF3070BD002801D000F050B8704710B5EF
:1028200000F074F8BDE81040FFF7F4BF10B500F0F9
:1028300087F8BDE81040FFF7EDBF000010B500219C
:1028400002A000F049F8012010BD00005349475094
:1028500056464E3A205075726520766972747561DD
:102860006C20666E2063616C6C656400124B694677
:1028700000F580528A421A6001D8114670471960EB
:10288000704730B50C4D6B46A3F580532C6822443D
:102890009A420FD89B1A02F5805003EBD37302EBD8
:1028A0006303984200D91846C01D20F007020C604F
:1028B000101B2A6030BD00000001002001491820D3
:1028C000ABBEFEE72600020010B5FFF7DDFA001DE3
:1028D00010BD00BFCD9B000070B505460C460A2018
:1028E00000E06D1C00F054F835B128780028F8D1CC
:1028F00002E0641C00F04CF814B120780028F8D1F4
:10290000BDE870400A2000F043B8000010B5014651
:1029100002A0FFF7E1FF012010BD0000534947521C
:10292000545245443A2052656469726563743A2092
:1029300063616E2774206F70656E3A20000000009E
:1029400010B5012805D0002103A0FFF7C5FF012025
:1029500010BD09A1F8E7000053494752544D454DB9
:102960003A204F7574206F662068656170206D6530
:102970006D6F7279000000003A2048656170206D2B
:10298000656D6F727920636F727275707465640023
:1029900008B569468DF800000320ABBE08BD70473E
:1029A0005FEA400C08BF91F0000F4FEA8C234FEA1A
:1029B000C12243EA51514FEA1C5018BF00F5F040C4
:1029C0004FEA300018BF41F000415FEA6C5C00F054
:1029D0002980BCF1FF3F08BF40F080407047130CD6
:1029E00006BF12044FF0100C4FF0000C130E04BF82
:1029F00012020CF1080C130F04BF12010CF1040CAD
:102A0000930F04BF92000CF1020CD30F04BF5200CD
:102A10000CF1010C11464FF00002A0F11F00A0EBD9
:102A20000C00704711F0004F08BF704731F00041B3
:102A30003FF4D5AF0B0C06BF09044FF0100C4FF05C
:102A4000000C0B0E04BF09020CF1080C0B0F04BFA5
:102A500009010CF1040C8B0F04BF89000CF1020C6E
:102A6000CB0F04BF49000CF1010CCCF12003A0EB0B
:102A70000C0022FA03F302FA0CF241EA030100F11E
:102A80000100704720F07F4C80EA030023F07F476D
:102A9000ACEB070303F57C5300F0004003F1FF03A8
:102AA0002DE980494FEA154B09B44FEA144325EA52
:102AB0000B4E24EA03480FF2042606EB13274908BD
:102AC0003E785FEA320203FB0667C7F5000707FBA3
:102AD00006F64FEA54374FEAD64606F1020607FBE0
:102AE000066CCCF1005C4FEA1C472CEA074C07FB54
:102AF00006F40CFB06F504EB15464FEA961634BFB8
:102B000000204FF000404FEAD13706FB07FC4FEAA8
:102B10001C4C0CFB0BF7D21B03FB0CF761EB070102
:102B20000CFB0EF7B0EB074072EB17420CFB08F7FB
:102B300034BFA2EB0742B2EB074261EB17414FEA09
:102B40000C444FEA910706FB07FC4FEA1C4C0CFBB8
:102B50000BF7B0EBC74072EB573203FB0CF734BFF7
:102B6000A2EBC742B2EBC74261EB57310CFB0EF749
:102B7000B0EBC70072EB57720CFB08F734BFA2EB47
:102B8000C702B2EBC70261EB5771039F4FEA816145
:102B900041EA921104EBCC044FEAD1374FEA82624A
:102BA00006FB07FC42EA90124FEA80604FEA1C4C99
:102BB0000CFB0BF7D21B03FB0CF761EB07010CFBC3
:102BC0000EF7B0EB074072EB17420CFB08F734BF6F
:102BD000A2EB0742B2EB074261EB17414FEA8C557B
:102BE0004FEA910704EB9C2406FB07FC4FEA1C4CC0
:102BF0000CFB0BF7B0EBC74072EB573203FB0CF743
:102C000034BFA2EBC742B2EBC74261EB57310CFBBA
:102C10000EF7B0EBC70072EB57720CFB08F734BF2E
:102C2000A2EBC702B2EBC70261EB577115EB4C2563
:102C30004FEA816141EA92114FEA82624FEAD1374D
:102C400042EA901206FB07FC44F100044FEA806060
:102C50004FEA1C4C0CFB0BF7D21B03FB0CF761EB90
:102C600007010CFB0EF7B0EB074072EB17420CFBB1
:102C700008F734BFA2EB0742B2EB074261EB174102
:102C800015EB1C154FEA813141EA92414FEA82323D
:102C900042EA90424FEA80304FEA0C7644F1000459
:102CA00048EA03434EEA0B484FF0000EB2EB080C23
:102CB00071EB030724BF624639464EEB0E0E4FF010
:102CC000000B0018524149414BEB0B0BB2EB080CC7
:102CD00071EB03077BF1000B24BF624639464EEBD4
:102CE0000E0E4FF0000B0018524149414BEB0B0BFD
:102CF000B2EB080C71EB03077BF1000B24BF6246BB
:102D000039464EEB0E0E51EA020718BF46F0010697
:102D100016EB0E7655F1000254F1000103D5BDE823
:102D20008901BDE80088BDE88901BDE80048B61901
:102D3000524141EB0101A3F10103704780807F7E86
:102D40007D7C7B7A79787776767574737271717021
:102D50006F6E6E6D6C6C6B6A6A69686867666665D3
:102D60006464636362616160605F5F5E5E5D5D5C61
:102D70005C5B5B5A5A5959585857575656555555D2
:102D80005454535352525251515050504F4F4F4E32
:102D90004E4D4D4D4C4C4C4B4B4B4A4A4A49494980
:102DA00048484847474747464646454545444444C2
:102DB000444343434342424242414141002B26D4D3
:102DC000770021D01CB54FEA370703B44FF010004D
:102DD0004FF010014FF000000FBCBDE810400BF1A8
:102DE000010BBBF1010F08BF5FEA170722BF12F109
:102DF000010211F101014FF0004143F1000300F025
:102E0000004043EA00007047F9D35708DAE746EA82
:102E1000064613F1400F4FEA16461FDD13F1200F4F
:102E2000DFBF16430A46002120335B42C8D0C3F1FE
:102E3000200746EA064602FA07F74FEA164646EA30
:102E40000706C3F1200722FA03F201FA07F721FA75
:102E500003F14FF0000342EA0702B1E746EA020637
:102E600046EA06464FEA164646EA0106BCBF46EA6F
:102E70000646360C4FF000034FF000024FF0000101
:102E80009EE72DE9C048934630B491E8380007C862
:102E900031EA400C48BF34EA430C03D5FFF7F2FD9A
:102EA000FFF78CFFF0BCBDE800882DE9C0489346D1
:102EB00030B491E8380007C810F0804F08BF13F015
:102EC000804F03D100F005F8FFF778FFF0BCBDE8B4
:102ED000008820F07F4780EA030023F07F4C07EB57
:102EE0000C03A3F57C5300F00040A3F1FE0392F025
:102EF000000F00F0B38095F0000F00F077802DE90F
:102F000001494FEA11404FEA144621EA004800FB0C
:102F100006FC24EA064708FB06F607FB08F800FB58
:102F200007F718EB06484CEB164C4FEA124B18EB20
:102F300007484FEA15464CEB174022EA0B4E0BFBB5
:102F400006FC25EA06470EFB06F607FB0EFE0BFB0A
:102F500007F71EEB064E4CEB164C4FF000061EEB2F
:102F6000074E4CEB174B18EB0B0840F1000018EB29
:102F70000E0B58EB000840F100008F1A4FF00001D3
:102F80003CBFC943661B14BFB5EB040C00213CBF1A
:102F9000C943F61B4FEA17444EEA8E0E27EA044552
:102FA0004FEA1C4704FB07622CEA074C05FB07F7B6
:102FB0000CFB05F604FB0CFC16EB074642EB174234
:102FC00016EB0C4642EB1C421BEB060658EB0202CA
:102FD000414146EA9E0601D5BDE80189B619524134
:102FE00041EB0101A3F10103BDE801894FEA14455A
:102FF0004FEA114724EA054621EA074C05FB07F48E
:1030000006FB07F70CFB06F105FB0CFC11EB074177
:1030100044EB17444FEA124711EB0C4144EB1C44BC
:1030200022EA074C05FB07F206FB07F70CFB06F646
:1030300005FB0CFC16EB074642EB174216EB0C4661
:1030400042EB1C456A1854F1000148BF7047B6199D
:10305000524141EB0101A3F10103704795F0000FCC
:1030600037D04FEA11424FEA144721EA024624EAD8
:10307000074C02FB07F106FB07F70CFB06F402FB0B
:103080000CFC14EB074441EB17414FEA154714EBD6
:103090000C4441EB1C4125EA074C02FB07F506FBFB
:1030A00007F70CFB06F602FB0CFC16EB074645EB9C
:1030B000174516EB0C4645EB1C42121951F1000165
:1030C00048BF7047B619524141EB0101A3F101031A
:1030D00070474FEA14454FEA114724EA054621EAB2
:1030E000074C05FB07F106FB07F70CFB06F24FF058
:1030F000000605FB0CFC12EB074241EB174112EBFB
:103100000C4251EB1C4148BF7047921841EB010142
:10311000A3F10103704710B508F0B8F9BDE81040FD
:1031200008F002B90021C160704700000021014889
:1031300007F098BA006400400021014807F092BAF5
:10314000006400400021014807F08CBA0064004090
:1031500010B590F825100024022903D00421C16382
:1031600001241CE001680A6822F00E020A6001686E
:103170000A6822F001020A60026C536890F844C0A9
:10318000012101FA0CFC43EA0C03536080F825107E
:10319000002180F82410816B002918BF8847204641
:1031A00010BD000070B5054600F008F84FEA0004B5
:1031B00000F004F8001BA842FAD370BD0148006873
:1031C00070470000B400002090F84120202A24D14C
:1031D00090F84020012A20D0012280F840202422AB
:1031E00080F841200268136823F00103136002682D
:1031F000136823F480531360026813681943116045
:1032000001680A6842F001020A60202180F841103A
:10321000002180F8401008467047022070470000E7
:10322000074981B00A6E42F001020A66096E01F098
:103230000101009103494A681043486001B070479A
:10324000001002400000014070B5041F00680168D2
:1032500021F0FE01016094F95C0094F95D5000F0EA
:10326000EEF9284600F0EBF9022084F8640070BD06
:103270000122001F012904BF80F86D20704700293A
:1032800008BF80F86E20704703689A69196812F4C5
:10329000807F18BF11F0800F09D0D0F844C04CF0E7
:1032A000010CC0F844C04FF4807CC3F81CC012F479
:1032B000806F18BF11F0800F09D0436C43F00803F2
:1032C0004364D0F800C04FF48063CCF81C3012F493
:1032D000007F18BF11F0800F07D0416C41F0020150
:1032E000416402684FF40071D161416C11F00B0F21
:1032F00008BF7047416C01F0CDBE02689169126849
:10330000436B002B08BF70471847000010B590F8BA
:10331000411020291CBF022010BD282180F8411037
:1033200003494163042101F079FE002010BD000033
:10333000115700082DE9F04190F86810041F00278C
:10334000002918BF87682046B4F95A20B4F95810EC
:1033500007F074FE07B3012184F86C10261D254682
:103360003046E76000F026F895F85020281D00212F
:10337000002A08BF0B4906D0012A08BF0A4902D01B
:10338000022A08BF09490A4B43F82200284607F0E1
:1033900029FD3046FFF7BAFF022084F86400BDE83B
:1033A000F081000091AD0008ADAD0008C9AD000886
:1033B0008C180020002804BF0120704770B5044617
:1033C00090F84100002520B984F84050204600F0D4
:1033D000B7F8242084F841002068016821F0010139
:1033E00001606068216820F0706008612068816871
:1033F00021F400418160A06840B1E16801290CBF5F
:1034000040F4004040F4044021688860E0680228ED
:1034100002D12168800248602068416841F400417F
:1034200041F000714160D4E904010843A16940EA18
:1034300001202168C860D4E90701084321680860B9
:103440002068016841F0010101606564202084F872
:103450004100256384F84250002070BDFFF756BF3D
:10346000082180F86010704708B5826F011FBAB15B
:10347000D1F88C20A2B191F87420002A0CBF4FF033
:1034800080734FF000730B660093B1F88C2093B2F9
:10349000D1F88820B1F8701089B200F005F808BDA5
:1034A000082081F8640008BD70B590F841C0049C04
:1034B000BCF1200F3BD190F840C0BCF1010F36D0D9
:1034C0004FF0010C80F840C04FF0220C80F841C052
:1034D0004FF0100C80F842C04FF0000CC0F844C010
:1034E0004262438524F08072C262124A4263428D76
:1034F000FF2A94BF428DFF22028594BFC26A4FF01B
:10350000807290F8283004686568C1F309010A4E9A
:1035100041EA03411143354041F4105129436160B0
:1035200080F840C0022101F079FD002070BD02202A
:1035300070BD0000B5540008009800FC704770474B
:103540007047002180F86A107047002180F86910E8
:103550007047000002480168491C01607047000084
:10356000B400002010B5032000F07AF80F2000F01E
:1035700005F800F063F8002010BD000010B588B019
:1035800001A902A800F07CFB00F09AFB24490190FD
:103590008A6D42F008028A658A6D02F0080207927D
:1035A0008A6B42F008028A638A6B22F008028A63FF
:1035B0001D4C1C4921604FF0FF31E160059A1B4909
:1035C000002A18BF4000B0FBF1F080B2401E6060DE
:1035D00000202061A0606061134801F0CDFA144919
:1035E000322005F0FDFD13494FF48020C1F80001A1
:1035F00000210D4801F0DCFA04210B4801F0D8FA53
:103600002068426A0C490A60096801F57A71816391
:103610002068C16841F00401C16008B0002010BDFD
:1036200000100240000C0040E41B002040420F004C
:1036300005C3000804E000E0A0000020704700F08F
:103640001F01012202FA01F14009800000F1E0208F
:10365000C0F88011BFF34F8FBFF36F8F704700002A
:10366000074900F007000A684FF6FF031A4042EAD4
:10367000002040F0FD7040F080600860704700005E
:103680000CED00E00248416841F400714160704770
:10369000007000400248006800F4C06070470000FD
:1036A00000700040054850F8901F21F0200140F8BC
:1036B0007819016821F40071016070470010024020
:1036C0000248016841F004010160704700100240A7
:1036D0002DE9F84F044600270088FD4D3E4610F4C2
:1036E000006F1FD0606E80B1B0F5800F12D0B0F5C2
:1036F000000F05D0B0F5400F18BF012724D010E00F
:10370000E86840F48030E8601EE00021201D02F0EF
:103710005BF904E0002104F1200002F025FA070023
:1037200012D03E46208810F4805F28D0A06EC8B129
:10373000B0F1807F1BD0B0F1007F0ED0B0F1407FA0
:1037400018BF012719D019E0D5F88800616E20F460
:1037500040000843C5F88800E4E7E86840F480309A
:10376000E8600AE00021201D02F02EF904E00021AB
:1037700004F1200002F0F8F907465FB13E462068E8
:1037800010F4003F41D0A86D4FF0000A10F0805FA8
:1037900009D012E0D5F88800A16E20F040700843EF
:1037A000C5F88800EBE7A86D40F08050A865A86DCB
:1037B0004FF0010A00F080500090DFF81883D8F82D
:1037C000000040F48070C8F80000FFF7F7FC814665
:1037D000D8F8000010F4807F0DD100BFFFF7EEFC99
:1037E000A0EB0900022801D9032706E0D8F8000061
:1037F00010F4807FF2D0002F7ED03E46BAF1000F49
:1038000003D0A86D20F08050A865207810F0010F3B
:1038100007D0D5F88800A16B20F003000843C5F855
:103820008800207810F0020F07D0D5F88800E16BEF
:1038300020F00C000843C5F88800207810F0040F31
:1038400007D0D5F88800216C20F030000843C5F877
:103850008800207810F0080F07D0D5F88800616C38
:1038600020F0C0000843C5F88800207810F0100F41
:1038700007D0D5F88800A16C20F440700843C5F843
:103880008800207810F0200F07D0D5F88800E16C70
:1038900020F440600843C5F88800208810F4007FB9
:1038A00007D0D5F88800E16D20F440200843C5F822
:1038B0008800208810F4806F07D0D5F88800216E2A
:1038C00020F440100843C5F88800207810F0400F1D
:1038D00007D0D5F88800216D20F440500843C5F882
:1038E0008800207810F0800F09D0D5F88800616D2D
:1038F00020F44040084300E021E0C5F8880020881B
:1039000010F4807F07D0D5F88800A16D20F44030F6
:103910000843C5F88800208810F4005F5AD0D5F815
:103920008800E16E20F040600843C5F88800E06E32
:10393000B0F1006F42D0B0F1806F44D04AE0D5F8CA
:10394000900010F440701CBFD4F88410814211D054
:10395000D5F89000D5F8901020F4407041F48031F3
:10396000C5F89010D5F8901021F48031C5F890106A
:10397000C5F8900010F0010F16D0FFF71FFC0746A6
:10398000D5F8900010F0020F08BF41F288380BD133
:10399000FFF714FCC01B404501D903262EE7D5F8DC
:1039A000900010F0020FF3D0D5F89000D4F88410F6
:1039B00020F440700843C5F890001FE7E86840F421
:1039C0008010E86006E00121201D01F0FDFF0028C5
:1039D00018BF0646206810F4002F1BD0D5F88800C9
:1039E000216F20F040600843C5F88800206FB0F1D7
:1039F000006F03D0B0F1806F05D00BE0E86840F4B1
:103A00008010E86006E00121201D01F0DDFF0028A4
:103A100018BF0646206810F4802F1BD0D5F8880008
:103A2000616F20F040600843C5F88800606FB0F116
:103A3000006F03D0B0F1806F05D00BE0E86840F470
:103A40008010E86006E00121201D01F0BDFF002884
:103A500018BF0646208810F4804F1CD0D5F8880087
:103A6000A16F20F040500843C5F88800A06FB0F166
:103A7000805F03D0B0F1005F06D00CE00221201D72
:103A800001F0A2FF30B906E0022104F1200002F0AB
:103A90006BF800B10646208810F4004F07D0D5F827
:103AA0008800E16F20F080400843C5F88800206856
:103AB00010F4803F08D0D5F88800D4F8801020F0AA
:103AC00000400843C5F888003046BDE8F88F000084
:103AD00000100240007000402DE9F047644F064698
:103AE0008846386800F0070040450AD2386820F060
:103AF000070040EA08003860386800F007004045D9
:103B00003FD130785B4D10F0020F05D0A868B16846
:103B100020F0F0000843A860307810F0010F68D062
:103B20007068022824D0032827D0296850B311F4E4
:103B3000806F6ED0A96821F003010843A860FFF7E9
:103B40003DFB0446706841F2883902281ED00328E4
:103B50002DD00028A86800F00C0039D0042848D0E7
:103B6000FFF72CFB001B48453ED90320BDE8F0873A
:103B7000296811F4003FDDD14BE0296811F0007F86
:103B8000D8D146E011F0020FD4D142E0A86800F08D
:103B90000C0008282DD000BFFFF710FB001B484584
:103BA000E3D8A86800F00C000828F5D121E0A86847
:103BB0004FF00C0A3AEA00001BD000BFFFF7FEFAF4
:103BC000001B4845D1D8A8683AEA0000F6D110E0B9
:103BD00078B100BFFFF7F2FA001B4845C5D8A868C6
:103BE00010F00C0FF6D104E0A86800F00C000428D7
:103BF000B6D1386800F0070040450DD9386820F08C
:103C0000070040EA08003860386800F007004045C7
:103C100002D00120BDE8F087307810F0040F05D005
:103C2000A868F16820F4E0600843A860307810F0DC
:103C3000080F06D0A868316920F4605040EAC1003E
:103C4000A86000F06DF8A968F02292FAA2F201F0E3
:103C5000F001B2FA82F2D140074A515CC8400749EC
:103C600008600F20FFF78AFC0020BDE8F087000005
:103C70000020024000100240F8D80008B8000020E0
:103C80000F2202600C4A936803F0030343609368B9
:103C900003F0F0038360936803F4E063C360926809
:103CA0004FF4E06303EAD20202610448006800F0C6
:103CB000070008607047000000100240002002402A
:103CC00008480949006889684FF4E06292FAA2F254
:103CD00001F4E061B2FA82F2D140044A515CC8407A
:103CE00070470000B80000200010024038D90008DA
:103CF00008480949006889684FF4605292FAA2F2B4
:103D000001F46051B2FA82F2D140044A515CC840D9
:103D100070470000B80000200010024038D90008A9
:103D2000474930B400228B68104613F00C0F454B06
:103D30004FF00C044FEA630C16D08D6834EA050589
:103D400004D1CD6805F00305012D0DD08D6805F077
:103D50000C05042D08BF18461BD08D6805F00C0516
:103D6000082D08BF604614E00A6812F0080F43D01F
:103D70000A68F02595FAA5F502F0F002B5FA85F586
:103D8000EA40314D55F822208D6815F00C0F08BF20
:103D900010468D68AC431CBF30BC7047C86800F04B
:103DA0000305C868702494FAA4F400F07000B4FA13
:103DB00084F4E040401C4FF4FE44022D28D0032D33
:103DC00032D0B2FBF0F0CA6894FAA4F302F4FE42D7
:103DD000B3FA83F3DA405043C9684FF0C06292FAF5
:103DE000A2F201F0C061B2FA82F2D140491C49004E
:103DF000B0FBF1F030BC7047D1F894204FF47065FF
:103E000095FAA5F502F47062B5FA85F5EA40B8E7CF
:103E1000B3FBF0F0CA6894FAA4F302F4FE42B3FADA
:103E200083F3DA405043D7E7BCFBF0F0CA6894FA5A
:103E3000A4F302F4FE42B3FA83F3DA405043CBE733
:103E4000001002400024F40008D900082DE9F843CE
:103E500004460078FF4E10F0100F00F00B81B068A0
:103E600010F00C0F0FD0A0690028306800F0EE8031
:103E700040F001003060FFF7A1F90546306810F00E
:103E8000020F7DD0CFE0306810F0020F02D0A069A1
:103E9000002876D0256A30684FF0F00810F0080F3F
:103EA00019BF306800F0F000D6F8940008EA10104E
:103EB000E94F854249D9B06D4FF0000910F0805F9D
:103EC00002D0FFF7E7FB0DE0B06D40F08050B06529
:103ED000B06D00F080500090FFF7DCFBB16D21F079
:103EE0008051B165B0F5007F09D0802D88BF4FF0BB
:103EF00003090DD808D100BF4FF0020908E0802D5A
:103F000006D9A02D02D9F7E7702D01D14FF0010994
:103F1000386820F0070040EA09003860386800F08F
:103F2000070048455ED1306840F0080030603068D6
:103F300020F0F001206A084330607068E16920F4E5
:103F40007F4040EA012070604FE0306840F0080098
:103F50003060306820F0F001206A084330607068FB
:103F6000E16920F47F4040EA01207060D4F820909D
:103F7000B06D002510F0805F04D0FFF78BFB0FE0E1
:103F800047E02FE0B06D40F08050B065B06D00F0BC
:103F900080500090FFF77EFBB16D21F08051B1653C
:103FA000B0F5007F09D0B9F1800F88BF03250FD885
:103FB0000AD100BF4FF002050AE0B9F1800F07D91E
:103FC000B9F1A00F03D9F5E7B9F1700F00D10125C0
:103FD000386820F0070028433860386800F0070090
:103FE000A84202D00120BDE8F883FFF799FEB1682E
:103FF00098FAA8F201F0F001B2FA82F2D140974AA1
:10400000515C20FA01F1964801600F20FFF7B6FAE3
:1040100030E0FFF7D3F8401B022800F21882306826
:1040200010F0020FF5D0306840F0080030603068C2
:10403000216A20F0F000084330607068E16920F4E4
:104040007F4040EA0120706014E000BF20F00100D2
:104050003060FFF7B3F80546306810F0020F09D062
:10406000FFF7ACF8401B022800F2F181306810F035
:10407000020FF5D120784FF00C0710F0010F55D04A
:10408000B06800F00C00082826D0B06837EA0000BD
:1040900004D1F068032131EA00001DD06068B0F55A
:1040A000803F22D0B0F5A02F30680CBF40F48020B4
:1040B00020F48030306030680CBF40F4803020F451
:1040C00080203060606800B3FFF778F805463068FC
:1040D00010F4003F0ED029E0306810F4003F25D0E6
:1040E000606800283FF47EAF20E0306840F4803004
:1040F0003060E7E7FFF762F8401BC82800F2A781AD
:10410000306810F4003FF5D010E0FFF757F805468F
:10411000306810F4003F09D0FFF750F8401BC82862
:1041200000F29581306810F4003FF5D1207810F04E
:10413000020F50D0B0684FF0F85800F00C0004287F
:1041400017D0B06837EA000004D1F06800F003002F
:1041500002280ED0E0680028306828D040F4807033
:104160003060FFF72BF80546306810F4806F09D0F7
:1041700011E0306810F4806F0DD0E06800283FF443
:1041800031AF08E0FFF71AF8401B02286AD8306800
:1041900010F4806FF6D0706898FAA8F22169B2FA2C
:1041A00082F220F0F85091400843706013E020F450
:1041B00080703060FFF702F80546306810F4806FB9
:1041C00009D000BFFEF7FAFF401B02284AD830682A
:1041D00010F4806FF6D1207810F0080F32D06069AB
:1041E0000028D6F8940016D040F00100C6F89400DC
:1041F000FEF7E4FF0546D6F8940010F0020F21D137
:10420000FEF7DCFF401B02282CD8D6F8940010F0F3
:10421000020FF5D016E020F00100C6F89400FEF77A
:10422000CDFF0546D6F8940010F0020F0AD000BF6B
:10423000FEF7C4FF401B022814D8D6F8940010F0F3
:10424000020FF5D1207810F0040F6FD04FF0000866
:10425000B06D08E00010024000200240F8D80008CD
:10426000B8000020A6E010F0805F09D1B06D40F0EA
:104270008050B065B06D4FF0010800F080500090A4
:10428000DFF8E091D9F8000010F4807F18D1D9F858
:10429000000040F48070C9F80000FEF78FFF05466B
:1042A000D9F8000010F4807F0AD100BFFEF786FF26
:1042B000401B02287ED8D9F8000010F4807FF5D08A
:1042C000A06801281FD00528D6F890000CBF40F048
:1042D000040020F00100C6F89000D6F890000CBF52
:1042E00040F0010020F00400C6F89000A06841F200
:1042F0008835E0B1FEF762FF8146D6F8900010F0F5
:10430000020F07D027E0D6F8900040F00100C6F871
:104310009000EBE7FEF752FFA0EB0900A84249D856
:10432000D6F8900010F0020FF4D014E01AE0FEF777
:1043300045FF8146D6F8900010F0020F0BD000BF69
:10434000FEF73CFFA0EB0900A84233D8D6F8900056
:1043500010F0020FF4D1B8F1000F03D0B06D20F0CF
:104360008050B065A06A30B3B16837EA01013FF40C
:1043700039AE0228306820F08070306008D0306894
:1043800010F0006F04BF306810F0005F48D04BE0C1
:10439000FEF714FF0546306810F0007F09D000BF1B
:1043A000FEF70CFF401B022851D8306810F0007F48
:1043B000F6D101E04BE051E0206BE16A00011038DA
:1043C0000843616BA26B0902120941EA42410843AA
:1043D000A18F254A490802EB4151084394F8401047
:1043E0004908120102EB41610843F060306840F077
:1043F00080703060F06840F08070F060FEF7DEFEA4
:104400000446306810F0007F28D100BFFEF7D6FECA
:10441000001B02281BD8306810F0007FF6D01DE08A
:10442000F06820F00300F060F06820F4881020F0BD
:104430008070F060FEF7C2FE0446306810F0007F26
:104440000CD000BFFEF7BAFE001B022802D90320E1
:10445000BDE8F883306810F0007FF3D10020BDE89C
:10446000F8830000007000400000E0FF704708B5CE
:1044700002685368916811F0400F0AD111F0010FE2
:1044800018BF13F0400F04D0C16C01B05DF804EB0D
:10449000084711F0020F18BF13F0800F04D0016D10
:1044A00001B05DF804EB084711F4B07F08BF08BD08
:1044B00011F0400F0BD090F85D30032B08BF08BD02
:1044C000036E43F004030366D3689368009311F00E
:1044D000200F09D0036E43F0010303669368009335
:1044E000136823F04003136011F4807F06D0016E3F
:1044F00041F00801016601688968009101684A6815
:1045000022F0E0024A60012180F85D10FFF7AEFF63
:1045100008BD002804BF0120704770B5044690F81C
:104520005D00002520B984F85C50204600F055F865
:10453000022384F85D302068016821F040010160A9
:10454000E068B0F5E06F8CBF00214FF48051B0F50A
:10455000706F1CBFB0F5E06FA5620122D4F830C0C7
:10456000BCF1000F17D0D4E901031843D4E9043C8F
:1045700043EA0C031843238B03F400731843E369E5
:104580001843236A1843A36A184323681860206BF2
:1045900002280BD105E0B0F5E06F8CBF23632263E6
:1045A000E1E72068036843F400630360636B606ABB
:1045B000D4F818C018430426E36806EA1C4C43EA02
:1045C0000C0318430843216848602168E06A0861C9
:1045D000256684F85D20002070BD704730B4134616
:1045E00090F85C204FF0000C012A02BF022030BC82
:1045F0007047012480F85C4090F85D500022012D46
:1046000018BF4FF0020C66D1002914BF002B4FF0E9
:10461000010C60D0042580F85D5002660164A0F8AA
:104620004430A0F8463082638287C2874568B5F57A
:10463000827F04BF8568002D1AD0816AB1F5005FC2
:1046400018BF82641AD00265C168B1F5E06F0168D5
:104650004B688CBF23F4805343F480534B608CBF72
:104660001F492049C1648168B1F5004F16D110E09F
:1046700080F85C2030BC0A4600F096B98464C168BA
:10468000B1F5E06F9CBF016B022904BF0221816478
:10469000D9E701680B6823F480430B60816AB1F5A8
:1046A000005F0AD101680B684DF6FF7423400B6070
:1046B00001680B6843F400530B6001684B6843F0DA
:1046C00060034B6001680B6813F0400F03D10B6867
:1046D00043F040030B6080F85C2030BC60467047BC
:1046E000BD5F00082D60000870472DE9F84F99461E
:1046F00092468B46044600250A9EFEF75FFD07465C
:1047000094F85C00012804BF0220BDE8F88F012066
:1047100084F85C0094F85D004FF00008012818BF91
:10472000022540F03981BBF1000F1CBFBAF1000F28
:10473000B9F1000F00F02F81052084F85D00C4F866
:104740006080C4F840A0A4F84690A4F84490C4F84F
:1047500038B0A4F83E90A4F83C90A06AB0F5005F91
:104760000AD1206801684DF6FF721140016020688F
:10477000016841F400510160E068B0F5E06F9CBF52
:10478000B4F846000128206841688CBF21F48051AC
:1047900041F4805141602068016811F0400F03D15D
:1047A000016841F040010160E068B0F5E06F36D883
:1047B00097E0C8B12068816811F0020F14D0A16B96
:1047C0000988C160A06B801CA063E08F401E0004BC
:1047D000000CE08704BFA06AB0F5005F04D1206838
:1047E000016841F480510160B4F8460078B1206856
:1047F000816811F0010F0AD0C068216C0880206C1C
:10480000801C2064B4F84600401EA4F84600B6F1AF
:10481000FF3F04D0FEF7D2FCC01BB0425FD2E08F56
:10482000002804BFB4F846100029C2D1A06AB0F530
:10483000005F5ED08BE010B321688A6812F0020F2F
:104840001DD00128A06B07D90088C860A06B801C10
:10485000A063E08F801E05E0421CA263007808730D
:10486000E08F401EE0870004000C04BFA06AB0F592
:10487000005F04D12068016841F480510160B4F800
:10488000461021B32068826812F0010F1FD0012961
:1048900013D9C068216C0880206C801C2064B4F897
:1048A0004600801E80B2A4F8460001280FD8206878
:1048B000416841F48051416009E0027B206C411C59
:1048C00021640270B4F84600401EA4F84600B6F118
:1048D000FF3F06D0FEF772FCC01BB04201D3032598
:1048E0005AE0E08F002804BFB4F846100029A2D196
:1048F0009CE7012233461146204601F0B8FCD0B9AE
:10490000E068B0F5706F206808D0007BADF800005B
:10491000BDF80000206B022806D018E0C068ADF892
:104920000000BDF8000012E0012233461146204687
:1049300001F09DFC28B1206E40F0020020660325A6
:104940002AE02068007BADF80000BDF80000206878
:10495000816811F0100F07D0216E41F0020121662D
:104960004FF6EF7181600125334600224FF4C051AC
:10497000204601F024FC30B9334600228021204635
:1049800001F075FC28B1206E40F020012166202046
:104990002066206E00B10125012084F85D0084F8B6
:1049A0005C802846BDE8F88F70B490F85C404FF00A
:1049B000000C012C02BF022070BC7047012680F859
:1049C0005C6090F85D500024012D0CD04568B5F571
:1049D000827F01BF8568002D90F85D50042D18BFBF
:1049E0004FF0020C5BD100291ABF002A002B4FF0B8
:1049F000010C54D08464856AB5F5005F09D18664E2
:104A0000C668B6F5E06F9CBF066B022E04BF022697
:104A1000866490F85D60042E1CBF052680F85D60FA
:104A2000046681638387C3870264A0F84430A0F8DA
:104A30004630C168B1F5E06F8CBF1B491B49C164AA
:104A40008CBF1B491B490165B5F5005F0AD10168A0
:104A50000A684DF6FF731A400A6001680A6842F45A
:104A600000520A60C168B1F5E06F9CBFB0F8461013
:104A7000022901684A682CBF22F4805242F4805215
:104A80004A6001684A6842F0E0024A6001680A68C8
:104A900012F0400F03D10A6842F040020A6080F829
:104AA0005C4070BC60467047CD5C0008315D00081A
:104AB000DF5D0008255E000810B490F85C304FF010
:104AC000000C012B02BF022010BC7047012380F8AC
:104AD0005C300023002914BF002A4FF0010C40D0A5
:104AE00090F85D40012C18BF4FF0020C39D103241F
:104AF00080F85D40036681638287C2870364A0F803
:104B00004430A0F84630C364C168B1F5E06F8CBF93
:104B10001649174901658168B1F5004F04D1016854
:104B20000A6842F480420A60816AB1F5005F0AD1E6
:104B300001680A684DF6FF7422400A6001680A683D
:104B400042F400520A6001684A6842F080024A60FA
:104B500001680A6812F0400F03D10A6842F040026F
:104B60000A6080F85C3010BC604670479D600008A9
:104B70002F61000870477047002804BF012070476C
:104B800010B5044690F8390028B9002084F83800A0
:104B9000204600F00CF8022084F83900211D20681E
:104BA00001F024FD012084F83900002010BD704779
:104BB0000268012303FA01F1136A8B431362136A3B
:104BC000194311620168A1F18042B2F596321CBF0F
:104BD000A1F18042B2F59A320DD0A1F18042B2F536
:104BE000A0321FBFA1F18042B2F5A232A1F18042F2
:104BF000B2F5A43203D14A6C42F400424A64006820
:104C0000016841F0010101600020704770470068B1
:104C100081B0C16911F0010F04BFC16911F0020F29
:104C200003D0808C009001B07047C16911F0040F6F
:104C300004BFC16911F0080FF3D101B07047000043
:104C400070B501680446C8690A6810F00F0F4FF08C
:104C500020055CD08B6840F2011C13EA0C0F7DD05C
:104C600010F0010F18BF12F4807F07D04FF0010C35
:104C7000C1F820C0E16E41F00101E16610F0020FC1
:104C800018BF13F0010F08D0D4F800C00221CCF8EF
:104C90002010E16E41F00401E16610F0040F18BF2E
:104CA00013F0010F08D0D4F800C00421CCF8201074
:104CB000E16E41F00201E16610F0080F0CD002F045
:104CC000200103F00103194306D02368082119626B
:104CD000E16E41F00801E166E16E002908BF70BD98
:104CE00010F0200F18BF12F0200F0BD0B4F85C109A
:104CF00094F86A202046222A5ED02068018B41F079
:104D000008010183E06E10F0080F7AD181E010F005
:104D1000200F14BF12F0200F8B683AD0B4F85C203B
:104D200094F86A302046222B04D0088B40F008000B
:104D3000088370BD898C8368B3F5805F04BF036905
:104D4000002B1FD00A40416D4B1C436581F80020A9
:104D5000B0F85A10491E0904090C00E019E0A0F847
:104D60005A1018BF70BD01680A6822F490720A6078
:104D700001688A6822F001028A6080F86A5000F0B7
:104D8000F9F870BD436D11401980416D891C416572
:104D9000DEE78B6810F4801F18BF13F4800F6BD010
:104DA0004FF48010086284F8695084F86A502046F5
:104DB000BDE87040FFF72ABF0268928C8368B3F5A4
:104DC000805F04BF0369002B1CD00A40416D4B1C5F
:104DD00043650A70B0F85A10491E0904090CA0F87E
:104DE0005A108FD101680A6822F490720A60016833
:104DF0008A6822F001028A6080F86A5000F0BAF8EE
:104E000080E70BE0436D11401980416D891C4165BD
:104E1000E0E72068806810F0400F27D084F86A50DF
:104E20002068016821F4907101602068816821F098
:104E3000010181602068816811F0400F12D0816803
:104E400021F040018160606E60B12D498163606E28
:104E5000FEF77EF9002808BF70BD606E816BBDE86B
:104E6000704008472046FFF7D2FE70BD2046FFF78E
:104E7000CEFE0020E06670BD10F0800F18BF12F06B
:104E8000800F2DD094F86900212818BF70BDB4F8A8
:104E9000520098B1A068B0F5805F04BF2069002877
:104EA000E06C15D0411CE16421680078A1F828006D
:104EB000B4F85200401EA4F8520070BD086820F0FB
:104EC000800008602068016841F04001016070BD09
:104ED0000088C0F308000885E06C801CE064E7E708
:104EE00010F0400F14BF12F0400F70BD20460A684A
:104EF00022F040020A6084F8695000F03CF870BD6E
:104F0000DB670008002804BF0120704710B5044685
:104F100090F8690028B9002084F86800204600F065
:104F200028F8242084F869002068016821F0010134
:104F30000160204601F05CFC012808BF10BD606ADA
:104F400000281CBF204601F0ABFB2068416821F41B
:104F5000904141602068816821F02A0181602068C9
:104F6000016841F0010101602046BDE8104001F0F8
:104F700004BC704770470068C16911F0400F1CBF46
:104F800040210162704710B5806A01684A6842F4A6
:104F900000424A60826B00219163C26B916390F87A
:104FA0004110602902D0FEF7C5F910BD202180F81C
:104FB0004110FEF749F910BD002211F0010F4FF02A
:104FC000280306D090F841C0422233EA0C0C18BFE7
:104FD000F22211F0020F08D090F841C042F04402D2
:104FE00033EA0C0318BF42F0B00211F0040F18BFEF
:104FF00042F0B80211238B4308BF42F09002122303
:1050000033EA010104BF42F0200141F04002006890
:1050100001689143016000207047000010B41B4CF0
:105020001223D0F834C000228B43A4451CBF184C77
:10503000A44517D111F0040F18BFB8224FF0110C7E
:105040003CEA010108BF42F09002002B04BF42F08D
:10505000200141F04002006801681143016010BC6A
:105060000020704711F0040F18BFB82211F0010F93
:1050700018BF42F0F20211F0020F18BF42F0F40222
:10508000002B08BF42F02002E5E70000BD530008F6
:105090009D56000870B50025044680F842503548FA
:1050A000E0626585606C0843606494F841002026E6
:1050B00028281FBF94F84100292894F841002A2885
:1050C00024D007212046FFF777FF94F8410060289D
:1050D00018BF84F841602563656320680168026831
:1050E00011F4804F24491CD022F480420260A06B4E
:1050F000816384F84050A06BFEF72AF8002808BFAF
:1051000070BDA06B816BBDE870400847032120464D
:10511000FFF752FF282084F8410025631748606399
:10512000DBE712F4004F12D0026822F40042026062
:10513000E06B816384F84050E06BFEF709F80028CB
:1051400008BF70BDE06B816BBDE87040084794F804
:105150004100602805D084F840502046FEF7EAF868
:1051600070BD84F8416084F840502046FEF76CF82A
:1051700070BD00000000FFFF874F000811570008B6
:1051800070B5044600682026C661206842682E4B30
:105190001A404260002525632C486563E06211F0E7
:1051A000100F06D021681020C861606C40F0040028
:1051B00060642068816911F0020F18BF8562206861
:1051C000816911F0010F03D1816941F00101816111
:1051D00003212046FFF7F0FE606CD0B994F841003F
:1051E000602816D094F84100212818D094F8410086
:1051F000222818BF70BD84F8416094F8420084F8FA
:105200004250402884F84050204619D0FEF728F933
:1052100070BD616C2046BDE87040FFF73BBF84F86D
:10522000416094F8420084F84250402884F840508D
:10523000204602D0FEF718F970BDFEF780F970BD68
:10524000FEF77CF970BD000000E800FE0000FFFFE3
:105250002DE9F0410446006820260F46C66121680A
:105260000820C86107212046FFF7A6FE2068416894
:1052700041F400414160206841684E4A114041605C
:10528000206881694FF0000511F0020F18BF856298
:105290002068816911F0010F03D1816941F001019A
:1052A00081612068016811F4804F04BF016811F426
:1052B000004F08D094F8411021290CBFA16BE16B7D
:1052C000096849686185618D19B1616C41F004011B
:1052D000616417F0040F0FD0416A606A421C626279
:1052E0000170208D40B1401E2085608D401E60857C
:1052F000606C40F004006064256384F8425065638C
:10530000606CDFF8B48098B3616C2046FFF7C2FE92
:1053100094F84100282818BFBDE8F081C4F82C801B
:10532000256384F8416084F8425017F0040F6563E8
:1053300010D02068416A606A421C62620170208D50
:1053400040B1401E2085608D401E6085606C40F03D
:105350000400606407212046FFF72EFE216810201C
:10536000C86184F840502046FEF778F8BDE8F08127
:10537000FFE7E06A10F5803F0AD0C4F82C8084F87B
:10538000416084F840502046FEF768F8BDE8F0819F
:1053900094F8410084F84160222884F84050204667
:1053A00003D0FEF7D2F8BDE8F081FEF7CAF8BDE8F9
:1053B000F081000000E800FE0000FFFF70B5044629
:1053C00090F84000012804BF022070BD012084F83D
:1053D000400011F0100F4FF0000518BF12F0100F31
:1053E0001AD021681020C861606C40F0040060642D
:1053F00012212046FFF712FE2068816911F0020F8A
:1054000018BF85622068816911F0010F4BD1816955
:1054100041F00101816146E011F0800F18BF12F0E8
:10542000400F38D02068016821F040010160608D94
:1054300000282BD022685068C0F30901608DFF2836
:1054400094BF608DFF20208594BF4FF000704FF017
:10545000807094F82830D2F804C0154E41EA034118
:105460000CEA060C084340EA0C005060608D218D68
:10547000401A608594F841002228206801680CBF1A
:1054800041F4004141F4804101600CE0402120469C
:10549000FFF700FE07E011F0200F1EBF12F0200FF3
:1054A0002046FFF76DFE84F84050002070BD0000DC
:1054B000009800FC2DE9F041044690F840001646A3
:1054C0000F46012804BF0220BDE8F081012084F8C6
:1054D000400017F0100F4FF0000518BF16F0100F26
:1054E00016D021681020C861606C40F00400606430
:1054F0002068816911F0020F18BF856220688169F8
:1055000011F0010F4CD1816941F00101816182E00C
:1055100017F0040F18BF16F0040F0CD02068416A72
:10552000606A421C62620170208D401E2085608D81
:10553000401E60856FE017F0020F18BF16F0020FD3
:105540000CD0606A411C6162216800788862208DFD
:10555000401E2085608D401E60855CE017F0800F46
:105560004FF020004FF011024FF0120318BF16F059
:10557000400F44D0218DA9BB618D99B32168486843
:10558000638DC0F30900444AFF2B0AD9FF2323850A
:105590004B6840F47F001A4040F080701043486030
:1055A00039E0638D2385E36A13F5803F94F8283052
:1055B0000CD003F0FF0CE36AD1F8048040EA0C4001
:1055C00008EA020218431043486024E0D1F804C0FE
:1055D000DBB240EA03400CEA020240F000701043E4
:1055E000486018E0FFE72168496811F0007F0ED19C
:1055F00084F8425094F84110212930D13DE017F051
:10560000400F18BF16F0400F05D0618D91B14021B9
:105610002046FFF73FFD17F0200F18BF16F0200FB0
:1056200003D039462046FFF7ABFD84F840500020F8
:10563000BDE8F0812168D1F804C01CF0007FEAD1F8
:10564000D4F82CC01CF5803F04BF486840F480406B
:10565000BAD084F8425094F8411021290DD084F832
:1056600041002046236302216563FFF7A5FC204625
:1056700084F84050FDF7F4FECDE784F84100204661
:10568000226301216563FFF797FC204684F84050B0
:10569000FDF7EAFEBFE70000009800FC10B50446E5
:1056A00090F84000012804BF022010BD012084F8BA
:1056B000400011F0100F18BF12F0100F11D094F825
:1056C000410021280CBFA06BE06B006840681021EE
:1056D00000282068C16116D0606C40F0040060644E
:1056E00011E011F0080F18BF12F0080F03D0216865
:1056F0000820C86107E011F0200F1EBF12F0200F34
:105700002046FFF7A5FD002084F8400010BD0000F2
:105710002DE9F047044690F8400017460E46012850
:1057200004BF0220BDE8F087012084F8400016F095
:10573000100F4FF028004FF021014FF022024FF0E0
:10574000000518BF17F0100F71D0638D4FF01008CF
:1057500043B12068C0F81C80606C40F004006064B5
:1057600000F021B9E36AB3F1007F19BFE36AB3F136
:10577000007F94F84130282B0CD0E36A13F5803F6A
:1057800003D094F84130292B2FD02068C0F81C801A
:1057900000F009B98B48E0622563202084F84100BD
:1057A00084F8425016F0040F656310D02068416AF7
:1057B000606A431C63620170208D40B1401E2085E9
:1057C000608D401E6085606C40F0040161640721BB
:1057D0002046FFF7F1FB2068C0F81C80204684F8C3
:1057E0004050FDF73BFE00F0DEB82368C3F81C8094
:1057F0002368D3F818C01CF0020F18BF9D622368FD
:10580000D3F818C01CF0010F05D1D3F818C04CF024
:10581000010CC3F818C084F8425094F84130292B89
:1058200073D094F841102A2970D0BCE0FFE716F03D
:10583000040F18BF17F0040F23D0638D7BB12368CA
:10584000D3F824C0636A03F10108C4F8248083F804
:1058500000C0238D5B1E2385638D5B1E6385638D76
:10586000002B51D1E36A13F5803F4DD084F84250AC
:1058700094F84130292B7DD094F841102A2945D045
:1058800091E016F0080F18BF17F0080F4BD094F8EE
:105890004110884320684FF008011CBFC16184F8A3
:1058A000405031D18269C2F3004A8269FE2303EA83
:1058B00012488268C068C2F3090200F0FE09E0687D
:1058C00002280BD004212046FFF776FB204684F8FF
:1058D000405042465146FDF7CBFC64E0062308F0F9
:1058E000060003EAD213984211D1A06C431CA364B2
:1058F000A06C022857D1A5642068C161204684F8B5
:1059000040505146FDF7B4FC4DE033E03FE0042148
:105910002046FFF751FB204684F840504A46514646
:10592000FDF7A6FC3FE016F0020F18BF17F0020FBC
:1059300039D0638D63B1606A411C6162216800786F
:105940008862608D401E6085208D401E20852AE083
:10595000E36AB3F1807F1CBFE36A002B23D184F894
:10596000425094F84130292B04D094F841102A2950
:105970000DD018E084F84100204621630121FFF793
:105980001BFB204684F84050FDF7DFFD0BE084F858
:105990004100204622630221FFF70EFB204684F8D7
:1059A0004050FDF7CEFD16F0200F18BF17F0200F66
:1059B00003D031462046FFF74BFC84F840500020CE
:1059C000BDE8F0870000FFFF2DE9F041654F044678
:1059D0008846F868002510F0030F20684FF070012A
:1059E00013D0FA6802F0030282427AD1002878D0FC
:1059F000F86891FAA1F100F07000B1FA81F1C840A5
:105A00006168401C884227D06BE0012804D002283E
:105A100007D003280AD064E03A6812F0020F0DD1D3
:105A20005FE03A6812F4806F08D15AE03A6812F4E5
:105A3000003F04BF3A6812F4802F52D0FA686368BE
:105A400091FAA1F1B1FA81F15B1E22F0730203FA1F
:105A500001F111430843F860386820F08060386035
:105A6000FDF7ACFB0646386810F0006F09D000BFA8
:105A7000FDF7A4FB801B022866D8386810F0006F81
:105A8000F6D14FF4FE40B8F1000F2CD090FAA0F000
:105A9000A268B8F1010FB0FA80F04FF0FF3102FABE
:105AA00000F039D0626901EB52014FF0C06292FA06
:105AB000A2F2B2FA82F291400843396921F4FE4120
:105AC00021F0C06108433861386840F08060386078
:105AD000FDF774FB0646386810F0006F2FD039E0F0
